:020000040800F2
:1000000058060020A90100087D280008F1250008F5
:100010007928000815080008312A000800000000AF
:10002000000000000000000000000000852800081B
:100030000109000800000000812800088928000844
:10004000C3010008C3010008C3010008C301000880
:10005000C3010008C3010008C3010008C301000870
:10006000C3010008C3010008C3010008C301000860
:10007000C3010008C3010008C3010008C301000850
:10008000C3010008C3010008C3010008000000000C
:10009000000000000000000000000000C301000894
:1000A000C3010008C3010008C3010008C301000820
:1000B000C3010008C3010008C3010008C301000810
:1000C000C3010008C3010008C3010008C301000800
:1000D000C3010008C3010008C301000800000000BC
:1000E000C3010008C3010008C301000800000000AC
:1000F000000000000000000000000000C301000834
:1001000000000000C3010008C3010008C30100088B
:1001100000000000000000000000000000000000DF
:1001200019080008C3010008C3010008C301000842
:10013000C3010008000000000000000000000000F3
:10014000000000000000000000000000C3010008E3
:10015000C3010008C3010008C3010008C30100086F
:10016000C3010008C30100080000000000000000F7
:10017000000000000000000000000000000000007F
:1001800000000000C30100080000000000000000A3
:10019000C3010008DFF80CD000F0E4FA0048004783
:1001A000552A0008580600200648804706480047A0
:1001B000FEE7FEE7FEE7FEE7FEE7FEE7FEE7FEE717
:1001C000FEE7FEE739290008950100082DE9F05FF8
:1001D0000546002092469B468846064681464024B6
:1001E0001BE0284641464746224600F09DF953460B
:1001F0005A46C01A914110D311461846224600F0C3
:1002000084F92D1A67EB01084F4622460120002190
:1002100000F07BF917EB00094E41201EA4F1010408
:10022000DFDC484631462A464346BDE8F09F2DE9CB
:10023000FE4F804681EA0300C00F0C46009021F07B
:10024000004123F00045B8EB0200A94105D2404629
:10025000214690461C460B46024623F000401043C0
:1002600047D0270DC7F30A00C3F30A510290401A82
:10027000019040286BDAC3F3130040F4801B009810
:10028000924620B10023D2EB030A63EB0B0B0198DB
:100290005946C0F14002504600F037F906460D4677
:1002A00050465946019A00F04FF910EB08006141A1
:1002B000002487EA115284EAE7731A4340D0009A77
:1002C00062B3019A012A4FEA075215DC001B61EB69
:1002D00002014FF0004202EA0752CDE90042001C41
:1002E00041F5801132462B4600F04FF903B0BDE8CE
:1002F000F08F40462146F9E7001B61EB0201001C2C
:1003000041F5801300185B412018A2F5001747EB58
:10031000030140EAD570B6196D4111E06D084FEA4E
:10032000360645EAC0754FEA0752001B61EB020131
:10033000001C41F5801149084FEA30000019514175
:1003400032462B4603B0BDE8F04F00F00FB90098DD
:10035000012240000023D0EB020263EBE07300981F
:1003600021464FEAE074B8EB000061EB0401E9E7D5
:1003700083F000435BE781F0004158E72DE9FE4F31
:1003800081EA030404F0004421F0004100944FF09E
:10039000000B23F0004350EA01045ED052EA03044C
:1003A0005BD0C3F30A54C1F30A552C44A4F2F334CE
:1003B0000194A0FB0254C1F3130141F48011C3F373
:1003C000130343F4801301FB024400FB034E840A31
:1003D000970A44EA815447EA8357A4FB07680295C9
:1003E0008D0A05FB07854FEA932C04FB0C54270567
:1003F000029D4FEA065847EA1637B5EB08056EEB43
:10040000070C870E920E47EA811742EA8312A7FB78
:100410000201B6EB0B0164EB00042B0D43EA0C3335
:100420005E1844EB1C50DA465146E7FB0201C5F367
:1004300013044FEA0B3343EA14534FEA0432019C8E
:1004400043EA0603A4F10C040294009CCDE900B435
:1004500000F09BF803B0BDE8F08F00200146F9E7FB
:100460000EB540F2334102910021CDE900110A4658
:100470000B4600F08AF803B000BD70B5C1F30A5214
:1004800001F000450024C1F3130140F2FF3341F4B1
:1004900080119A4201DA002070BD40F233439A4243
:1004A000A2F2334203DC524200F03EF800E09040FA
:1004B0002C43F1D0404270BD00F0004230F00040CB
:1004C0000AD0C10D01F56071C0F3160042EA015176
:1004D000C20840071143704700200146704730B5FD
:1004E0000B46014600202022012409E021FA02F5F2
:1004F0009D4205D303FA02F5491B04FA02F528448C
:10050000151EA2F10102F1DC30BD202A04DB203AE5
:1005100000FA02F1002070479140C2F1200320FA56
:1005200003F3194390407047202A04DB203A21FA54
:1005300002F00021704721FA02F3D040C2F12002FC
:100540009140084319467047202A06DBCB17203A12
:1005500041FA02F043EAE07306E041FA02F3D040C8
:10056000C2F12002914008431946704710B5141E8D
:1005700073F1000408DA401C41F1000192185B415C
:100580001A4301D120F0010010BD2DE9F04D924633
:100590009B4611B1B1FA81F202E0B0FA80F220324A
:1005A0009046FFF7B2FF04460F4640EA0A0041EAD0
:1005B0000B0153465A46084313D0114653EA010033
:1005C00019D0C8F140025046FFF7AEFF05460E466F
:1005D000504659464246FFF798FF084305D0012090
:1005E00004E020463946BDE8F08D0020054346EA88
:1005F000E0762C4337430A986305E40AA0EB080031
:100600000022FD0A44EA47540A3002D50020014680
:10061000E9E7010510196941DDE90845001969415B
:10062000BDE8F04DA2E72DE9F04D81EA030404F0A6
:10063000004B21F0004514464FF0000A23F0004122
:1006400050EA050220D054EA01021DD0C5F30A5732
:100650000246C5F31303C1F31300C1F30A5640F475
:10066000801543F48013A7EB0608101BD64608F24A
:10067000FD3873EB050002D308F1010801E0921880
:100680005B41B8F1000F03DA00200146BDE8F08DB0
:1006900000204FF48011064684460EE0171B73EBD2
:1006A000050705D3121B63EB050306434CEA010C57
:1006B00049084FEA300092185B4150EA0107EDD13A
:1006C00052EA030012D082EA040083EA05010843DB
:1006D00005D0101BAB4106D20122002306E0002208
:1006E0004FF0004302E06FF0010253101AEB0600D6
:1006F0004CEB085110EB0A0041EB0B01BDE8F04D4B
:10070000FFF734BFC1F30A52C1F3130140F2FF33C4
:1007100041F480119A4202DA00200146704740F20B
:1007200033439A42A2F2334202DC5242FFF7FCBE4C
:10073000FFF7EBBE30B5041E71F1000404DB4FF08F
:100740000044404264EB0101141E73F1000405DB18
:100750001C464FF00043524263EB0403994208BF2A
:10076000904230BD064C074D06E0E06840F00103C2
:1007700094E8070098471034AC42F6D3FFF70EFD1B
:10078000BC350008DC3500080146806B036C026C48
:1007900013F0500F08D0D20648BF00F05DB9806B4F
:1007A000C26C0846104700BF42F400710164016842
:1007B0008A6812F0405F01D000F04AB9027E002A38
:1007C000FAD1CA6A12F4700F02D08A685205F3D4C3
:1007D0004A6822F020024A60016C21F480710164B1
:1007E000016CC90448BF00F033B9016C41F001014C
:1007F000016400F02DB90000806B40210164416C60
:1008000041F00401416400F027B90000806B00F062
:1008100021B90000FEE7000010B540F26010C2F2FE
:10082000000000F0D3FA40F25000C2F2000026307F
:100830004FF0000C6FF01301002300BF30F8262C9E
:10084000143103EB020E30F8243C30F8222C0CEB70
:1008500003040EEB020C30F8202C30F81E3C04EBA5
:10086000020E30F81A2C634430F81C4C03EB020CD7
:1008700030F8183C30F8162C74442344944430F873
:10088000144C30F8122C2344944430F8104C30F8B7
:100890000E2C2344944430F80C4C30F80A2C23449A
:1008A000944430F8084C30F8062C2344944430F833
:1008B000044C30F8022C1C440CEB020330F8282BBB
:1008C000502904EB020CB9D348F21F50C5F2EB10CB
:1008D000A3FB0012ACFB000140F24C20C2F200006E
:1008E00064230380100940F21C02C2F2000210606F
:1008F000080940F22001C2F20001086010BD0000AA
:1009000070470000EFF3108072B600BFFEE70000F2
:1009100070B581B00022009290F83C20012A03D1EA
:100920000221084601B070BDD1F800E00122BEF1FD
:100930000A0F80F83C200BD31FFA8EF25200066893
:1009400012FA8EF2A2F11E0306F10C0205E000BFBE
:1009500006680EEB4E0306F110024FF0070C156807
:100960000CFA03F4A54315608D68146805FA03F3C7
:10097000234313604968062906D801EB8101053934
:1009800006F134020AE000BF0C2901EB810187BFA8
:10099000413906F12C02233906F130021F23146875
:1009A0008B4024EA030342F2043C1360C4F2010CBE
:1009B0001FFA8EF3146803FA01F1ACF54173214379
:1009C0009E4211603ED1BEF1120F07D1DCF800103B
:1009D00041F48001CCF8001034E000BF2EF001019A
:1009E00010292FD1DCF80010BEF1100F41F40001E6
:1009F000CCF8001026D140F20C01C2F200010968C7
:100A00004DF68362C4F21B32A1FB0212910C01EB82
:100A10008101490000910099A1B10099013900912B
:100A2000009979B1009901390091009951B100996B
:100A300001390091009929B100990139009100997B
:100A40000029EAD1002180F83C10084601B070BDB1
:100A5000704700007047000070470000002804BF86
:100A60000120704710B50446006C00283ED0206C71
:100A7000C00645D4206C41F202118843023042F294
:100A800004312064C4F20101086820F44030086099
:100A90000A6894E809101A43D4F810E00A60416823
:100AA000012321F4807141604168C0F6007341EA7E
:100AB0000E214160416821F040714160416841EA86
:100AC0000C014160816821F400618160E168826805
:100AD00011438160A16A8268994222F0706282604B
:100AE000826813D122F0405119E000BF204600F087
:100AF00065F80020606484F83C00206CC006B9D51D
:100B00000120002184F83C1010BD00BF114381601A
:100B1000816821F040518160E16A826811438160FF
:100B2000816821F0020181608168227E94F8203082
:100B300041EA42018160416883B141F40061416052
:100B400041684EF2000221F460414160616ACFF6D3
:100B5000FF72436802EB4131194301E021F4006167
:100B60004160C16A40F2000C21F47001C162E26987
:100B70006169CFF6F07CC36A0CEB02521A43C26281
:100B8000826822F40072826094F83020836843EA1D
:100B900042228260826822F480628260826842EA35
:100BA0008121816000206064216C012262F30101D7
:100BB0002164002184F83C1010BD000070B586B09F
:100BC000044642F200002168C4F20100002681427E
:100BD0000596049602D006B070BD00BF43F6300102
:100BE0000096C4F202014A6900F5604042F4807246
:100BF0004A614A6902F480720092009A00960A687B
:100C000042F001020A60096801F0010100910099B7
:100C10000321CDE9011101A9039600F0B9FA40F2D0
:100C2000601546F21040C2F20005C4F202004FF413
:100C30008061C5E9000605F110004FF400624FF431
:100C400000534FF4807C80E80E102846C5E9026608
:100C5000C5E9086600F09AF9002818BFFFF752FEB0
:100C6000A563AC6306B070BDB0B582B00446002089
:100C7000019094F83C00012802D1022002B0B0BDDE
:100C800094460A460120216884F83C008868C00721
:100C900029D188684DF6836540F00100886040F2F4
:100CA0000C00C2F200000068C4F21B35A0FB050571
:100CB000A80C00EB400001900198A0B10198013808
:100CC0000190019878B1019801380190019850B1D4
:100CD000019801380190019828B1019801380190DC
:100CE00001980028EAD18868C00503D5886820F4F7
:100CF000807088608D68206CED0709D140F010008D
:100D00002064606C40F001006064002002B0B0BD5F
:100D100040F20175A84300F58070206448684005E2
:100D200004D5206C012565F30D302064256C00206E
:100D3000ED044FF0000544BF656C25F006056564C1
:100D400084F83C00A06B40F2897540F60D03C0F6B4
:100D50000005C0F60003C0E90F5340F2F973C0F676
:100D60000003C3646FF022030B604B6842F2080576
:100D700043F080634B608B68C4F2010543F48073D9
:100D80008B604C31634600F0B3F9D5F8FC12206853
:100D9000C9060FD0A5F108018842B6D1286810F025
:100DA000405FB2D1286840F080402860002002B047
:100DB000B0BD00BF816811F0405FA6D1816841F0ED
:100DC00080418160002002B0B0BD0000F0B581B06C
:100DD00004460020009040F20C00C2F200000268BD
:100DE000D4E9166048F2B51337680821C1F64E33CE
:100DF00081403942A2FB03250CD0226813685B07AF
:100E000008D5136823F004031360B160616D41F0ED
:100E10000101616501218140394208D0226852698F
:100E2000120604D5B160616D41F0020161650421D3
:100E30008140394208D022681268920704D5B16017
:100E4000616D41F00401616510218140394217D084
:100E500020680268120713D5B16002680168520366
:100E600008D4C90508D4016821F008010160216C8B
:100E700021B905E008033FD4216C09B12046884719
:100E8000E16D202000FA01F23A4241D02068036867
:100E9000DB063DD5B26094F835300268052B1BD1D6
:100EA00022F016020260426922F080024261226C46
:100EB0000AB9A26C1AB1026822F0080202603F204F
:100EC0008840B060012084F83500216D00200029A1
:100ED00084F8340052D157E00168520310D4C90598
:100EE00012D4016821F010010160012084F835005E
:100EF000002084F8340007E0A16C0029BED1BFE7D0
:100F0000080301D4616C00E0E16B09B12046884719
:100F1000606DC8B3606DC0072ED0052084F8350021
:100F20002068A90A026822F001020260009A0132D8
:100F30008A4200921AD80268D20717D0009A01326A
:100F40008A42009212D80268D2070FD0009A01326A
:100F50008A4200920AD80268D20707D0009A01326A
:100F60008A42009202D80268D207DFD1012084F8B9
:100F70003500002084F83400E16C29B1204601B02E
:100F8000BDE8F040084700BF01B0F0BD2DE9F041D9
:100F9000044600F0DBF9002C4ED00546022084F810
:100FA00035000020216884F83400086820F0010032
:100FB00008600868C00708D000F0C8F9401B052881
:100FC0006CD821680868C007F6D1086848F23F026B
:100FD000CFF21002D4E90135024004F10C0E9EE874
:100FE000C1511A432A4310433043384340EA0800B2
:100FF000626A40EA0C00042A40EA0E0320D1D4E9D8
:101000000A5E206B4EEA0302104308604869BEF195
:10101000000F20F0030040EA050040F0040C15D05A
:10102000B8F5005F42D0B8F1000F51D1022D52D077
:10103000012D47D055B94EE00120BDE8F08100BF39
:101040000B60486920F0070040EA020C6FF00F00C7
:101050004AF6AB2250FA81F0CAF6AA22A0FB02237C
:101060001A0943F2B253C0F600039A5C40F2FF3310
:101070005F284FF03F00C1F814C021EA030100FAD5
:1010800002F088BF0431C4E91612886000230122EF
:101090000020636584F83520BDE8F0810322202319
:1010A0000320636584F83520BDE8F081032DCDD899
:1010B000012240230120DFE805F0030E030500BFF5
:1010C000E7E700BFAEF1C070B0FA80F0400904E07D
:1010D000032D04D3BAD1CEF300600028B6D001228C
:1010E00040230120636584F83520BDE8F0810000CD
:1010F00070B590F834C0BCF1010F46D04FF0010C30
:1011000080F834C0D0F858E090F835C0BCF1010F39
:1011100038D14FF0020C80F835C04FF0000CC0F809
:1011200054C0D0F800C08468056CC06DDCF8006065
:10113000402C26F48026CCF80060CCF804300B4616
:1011400004BF13460A463F2101FA00F0CCF80830EC
:10115000CCF80C20CEF80800DCF8000040F01600B7
:10116000CCF800002DB1DCF8000040F00800CCF80D
:101170000000DCF8000040F00100CCF80000002086
:1011800070BD00BF002180F83410022070BD000047
:101190002DE9F04F82B000F13E4241F2000502F12C
:1011A000FF77C4F2020507224FEAB726A84208BF1C
:1011B0000422042E38BF4FEAB7224FF0010A002460
:1011C00000274FF00008009208E000BF023708F146
:1011D0000108202F04F1040400F0B4800E680AFA1C
:1011E00008F916EA090FF1D0D1F804A00AF0030BB0
:1011F000ABF10106012E17D80322866802FA07FE1A
:10120000CA6826EA0E06BA40324382604268CAF3D0
:10121000001522EA090205FA08F54FEA480C6FEAC0
:101220000E062A4342600BE00322BA40D643BBF1CC
:10123000030FBC4604D1BC464FF0030B22E000BFB5
:10124000C2688D68324005FA0CF52A43BBF1020FE3
:10125000C26017D16FF0030202EA5802024404F0A0
:101260001C030F25D2F820E005FA03FA0D692EEAD7
:101270000A0E05FA03F343EA0E031362D1F804A041
:101280000AF0030B02680BFA0CF332401A431AF40B
:10129000403F4FF0010A026098D0002243F6440319
:1012A0000192C4F202031A6843F6004E42F48042EF
:1012B0001A601A68C4F2010E02F480420192019A87
:1012C00028F003024FF6084C7244CFF6FF7C52F828
:1012D0000C3004F00C060F25B540AB43009D05FA19
:1012E00006F6334342F80C30DEF808204B6842EA39
:1012F000090643F60C4CDD0258BF22EA0906CEF877
:101300000860C4F2010CDCF800209D0242EA0906E4
:1013100058BF22EA0906CCF80060DEF804209D03DD
:1013200042EA090658BF22EA0906CEF80460DEF850
:101330000020DB0342EA090658BF22EA0906CEF87C
:10134000006043E702B0BDE8F08F000040F250209B
:10135000C2F200000068704740F2040040F25021E1
:10136000C2F20000C2F2000100780A68104408606E
:101370007047000080B543F60040C4F202000168E7
:1013800041F400710160016841F48061016001680D
:1013900041F480710160032000F084F80F2000F018
:1013A00005F800F027F8002080BD000070B540F27D
:1013B0000406C2F2000640F20C013278C2F20001CB
:1013C0004FF47A730968B3FBF2F20446B1FBF2F111
:1013D000084600F041FB0F2C4FF0010508D838B942
:1013E0004FF0FF3021460022002500F02FF87460F6
:1013F000284670BD82B0002043F640010190C4F23F
:1014000002014A6842F480424A604A6802F480421B
:101410000192019A0090086840F0805008600868C6
:1014200000F080500090009802B07047002848BF3C
:10143000704700F01F01012202FA01F14EF2001282
:101440004009CEF2000242F82010704710B54EF667
:101450000C5CCEF2000CDCF80030C3F3022E8EF0F0
:101460000704042C28BF0424BEF103034FF0FF3E01
:101470000EFA04F438BF0023A14399400EFA03F397
:101480009A43114300F00F02043A624409010C32FE
:1014900000F16043B0F1FF3FC8BF03F56442117033
:1014A00010BD00004EF60C51CEF200010A684FF656
:1014B000FF031A4060F30A2242F0806040F0FD70A2
:1014C000086070472DE9F041002800F08B8043F65A
:1014D0000808C4F202080446D8F8F8030D4600F0E4
:1014E0000700884207D288F8F853D8F8F80300F0CC
:1014F0000700A84276D12068810717D5410705D596
:10150000D8F8001041F4E051C8F80010010705D5E3
:10151000D8F8001041F46041C8F80010D8F8001065
:10152000A26821F0F0011143C8F80010C0073FD1B4
:10153000D8F8F80300F00700A84207D988F8F85354
:10154000D8F8F80300F00700A8424BD12068410703
:1015500007D5D8F80010E26821F4E0511143C8F82B
:101560000010000708D5D8F80000216920F4604079
:1015700040EAC100C8F8000000F07CF8D8F800107C
:1015800043F29A52C1F30311C0F60002515C40F2DB
:101590000C0220FA01F140F20800C2F200000068DB
:1015A000C2F200021160FFF701FF0020BDE8F081E8
:1015B0006068811E022907D258F8081C89015CBFA7
:1015C0000120BDE8F08111E0012807D158F8081C7E
:1015D00089035CBF0120BDE8F08107E058F8081CD2
:1015E000890703D40120BDE8F08100BFD8F80010BE
:1015F00021F003010843C8F80000FFF7A7FE0646E4
:1016000041F28837D8F80000616800F00C00B0EBB8
:10161000810F8DD0FFF79AFE801BB842F2D90320CC
:10162000BDE8F08140F20C0043F60801C2F2000070
:10163000C4F202010068096843F2AA52C1F3822190
:10164000C0F60002515CC8407047000040F20C0038
:1016500043F60801C2F20000C4F202010068096802
:1016600043F2AA52C1F34231C0F60002515CC840B5
:101670007047000010B543F60404C4F20204606829
:1016800000F00C0008280BD0042819BF42F20040DB
:10169000C0F2F40047F64000C0F27D1010BD00BF5C
:1016A000206821682368490247F64001C0F27D1195
:1016B00000F03F02C3F388105CBF42F20041C0F269
:1016C000F401A1FB00010023FEF780FD2168022246
:1016D000C1F3014102EB4101B0FBF1F010BD00008C
:1016E0002DE9F04182B000286AD00446007843F624
:1016F0000006C007C4F202060BD0B06800F00C0070
:10170000042840F0A1803068800302D5606800287A
:1017100056D0207880071AD5B06810F00C0F09D089
:10172000B06800F00C00082840F0A8807068400203
:1017300000F1A4803068800702D5E06801283FD11D
:101740003068216920F0F80040EAC100306020785C
:10175000000739D4207840074ED4A5695DB3B0683E
:1017600000F00C00082840F0BD80012D28D07068E2
:10177000E16900F480028A4222D1216A00F03F022E
:101780008A421DD147F6C071626A0140B1EB821FE7
:1017900016D1A26A0023CFF6FF7303EBC23200F426
:1017A00040316FF30F0291420AD1E16A00F070609C
:1017B000B0EB016F04D1002002B0BDE8F08100BFA2
:1017C000012002B0BDE8F0816069002840F200000D
:1017D000C4F2472076D00121C0F8801EFFF7B6FD85
:1017E000054600BF706F8007B4D4FFF7AFFD401B04
:1017F0000228F7D9DDE000BF306C10F080580AD124
:1018000000200190306C40F080503064306C00F06B
:1018100080500190019847F20007C4F20007386831
:10182000C00541D4386840F480703860FFF78EFD01
:10183000054600BF3868C00536D4FFF787FD401B5A
:101840000228F7D9B5E000BFB06800F00C00082806
:1018500003D1706840023FF556AF6068B0F5803F35
:1018600007D0B0F5A02F40F08D80306840F4802084
:101870003060306840F4803030608DE0E0680028EF
:1018800052D00020C4F2472001210160FFF75EFD25
:10189000054600BF306880073FF552AFFFF756FDA1
:1018A000401B0228F6D984E0A068012805D005284D
:1018B0004ED1306F40F004003067306F40F00100CF
:1018C00030674FE00021C0F8801EFFF73FFD05465E
:1018D000706F80077FF53EAFFFF738FD401B022891
:1018E000F6D966E00027C4F2472700203866FFF7E4
:1018F0002DFD022D05460BD1306880015ED5FFF726
:1019000025FD401B02284FF00300F5D954E700BF26
:10191000306880017FF54FAFFFF718FD401B0228AC
:101920004FF00300F4D947E70020C4F2472000211C
:101930000160FFF70BFD0546306880077FF507AFB4
:10194000FFF704FD401B02284FF00300F4D933E7F2
:10195000316F002821F001013167316F21F004015E
:1019600031674DD0FFF7F2FC054641F2883700BFE2
:10197000306F800756D4FFF7E9FC401BB842F7D917
:1019800017E000BF3168002821F4803131603168F0
:1019900021F4802131604FD0FFF7D8FC054600BF0D
:1019A000306880033FF5B5AEFFF7D0FC401B6428DC
:1019B000F6D9032002B0BDE8F08100BF04F11C0598
:1019C0002FCD08430021CFF6FF7140EA821001EBD2
:1019D000C3316FF30F0140EA0560084370600120D6
:1019E0003866FFF7B3FC0446306880013FF5E3AE8C
:1019F000FFF7ACFC001B02284FF00300F4D9DBE634
:101A0000FFF7A4FC054641F2883700BF306F80071E
:101A100008D5FFF79BFC401BB8424FF00300F5D9F7
:101A2000CAE600BFB8F1000F7FF497AE306C20F02B
:101A30008050306491E600BFFFF788FC054600BF88
:101A4000306880037FF565AEFFF780FC401B64289B
:101A50004FF00300F4D9AFE6411E0020B0EB116F48
:101A60001CBF012070474EF21002CEF200025160FE
:101A70004EF62351CEF20001F0230B700721906047
:101A800011607047B0B590F83C20012A04BF0220D5
:101A9000B0BD01F108053CCDD1E900CE23F47C5363
:101AA00022F470521A432EF4F0431A432CF4E0430C
:101AB0001A4324F4C0431A432A43C96922F48042DA
:101AC000036811435964002180F83C100846B0BDFA
:101AD00010B590F83C20012A4FF002023ED080F869
:101AE0003D200268D2F804E0D2F808C00C682EF05D
:101AF0007003234340F6FF34C4F20004A242536053
:101B000010DCB2F1804F1ED040F20043C4F200035B
:101B10009A4218D040F60003C4F200039A4212D051
:101B200016E000BF40F60043C4F200039A420AD018
:101B300044F20003C4F201039A4204D00023C4F229
:101B400001039A4204D149682CF080031943916043
:101B50000121002280F83D1080F83C20104610BD85
:101B6000002804BF0120704710B5044690F83D00DE
:101B700028B9002084F83C00204600F08FF80220AD
:101B800084F83D00206840F2FF730268C4F200034D
:101B900040F2000C9842C4F2010C1DDD40F6000139
:101BA000C4F20001884220D060451ED040F60041BA
:101BB000C4F20001884218D04FF6FF71C4F2000150
:101BC00088421CDC984225DCB0F1804F3AD040F2CC
:101BD0000041C4F2000133E0B0F1804F05D040F283
:101BE0000041C4F200018842E6D1A16822F07002EF
:101BF0000A434FF6FF71C4F200018842E2DD44F26D
:101C0000FF31C4F20101884210DC60451AD044F271
:101C1000000113E040F60001C4F20001884211D037
:101C200040F60041C4F200010AE000BF44F60001A2
:101C3000C4F20101884205D044F20041C4F201011E
:101C4000884203D1216922F440720A43A36922F039
:101C50008001D4F804E0E268194360450160C26283
:101C6000C0F828E002D16169CCF83010012141614F
:101C7000002084F8461084F83E1084F83F1084F861
:101C8000401084F8411084F8421084F8431084F81E
:101C9000441084F8451084F83D1010BD81B00068F0
:101CA0000021C4F20101884202D001B0704700BF98
:101CB0000020009043F64400C4F20200016841F0A5
:101CC00001010160006800F001000090009801B07F
:101CD0007047000080B590F83C20012A4FF00202C6
:101CE00000F0C28080F83D20D0F800C04FF6777237
:101CF000DCF8083023EA0202CCF808200B684F2BEE
:101D000028DC1F2B44DD202B45D0302B43D0402B2B
:101D100040F0AC80D1F804E0C968DCF82030DCF891
:101D2000202022F00102CCF82020DCF8182022F03C
:101D3000F00242EA011123F00A0242EA0E02CCF854
:101D40001810CCF82020DCF8081041F0470121F0F1
:101D5000300180E06F2B27DDB3F5005F48D0B3F58D
:101D6000805F7AD0702B40F08180D1E901E3C968AF
:101D7000DCF8082043EA0E0322F47F4243EA012103
:101D80001143CCF80810DCF8081041F0770162E04C
:101D90000BB1102B6AD1DCF8081021F07001194347
:101DA00041F0070157E000BF502B35D0602B5DD1CB
:101DB000D1F804E0C968DCF8203023F01003CCF837
:101DC0002030DCF81830DCF8202023F4704322F0B7
:101DD000A00243EA013142EA0E12CCF81810CCF806
:101DE0002020DCF8081041F0670121F0100132E0FA
:101DF000D1E901E3C968DCF8082043EA0E0322F4C4
:101E00007F4243EA01211143CCF80810DCF80810A6
:101E100041F480411FE000BFD1F804E0C968DCF85C
:101E20002030DCF8202022F00102CCF82020DCF861
:101E3000182022F0F00242EA011123F00A0242EADD
:101E40000E02CCF81810CCF82020DCF8081041F075
:101E5000570121F02001CCF808100022012180F860
:101E60003D10002180F83C10104680BD0122F5E7AE
:101E70002DE9F04390F83C30012B04BF0220BDE86F
:101E8000F0834FEAB202032A3AD8DFE802F00341B6
:101E90007DB700BF036800261A6AC4F2010622F06B
:101EA00001021A621D6A1A465C6852F818CFB342E2
:101EB0008E68D1F800E025F0020545EA06050CD150
:101EC000CE68D1E9057824F4407425F00C0526F09D
:101ED00004063C43354344EA08042CF0730747EA00
:101EE0000E075C609F614F6809695F631D629F69AF
:101EF00047F008079F619F6927F004079F61ACE0E6
:101F00000121002280F83C200846BDE8F08300BF94
:101F1000036800261A6AC4F2010622F010021A624F
:101F20001D6A1A46D3F804C052F8184FB3428E689F
:101F3000D1F800E025F0200545EA06150FD1CE685E
:101F4000D1E905986FF0400707EA06162CF44067C0
:101F500025F0C00547EA8907354347EA880C24F491
:101F6000E64444EA0E27C3F804C09F614F6809693C
:101F70009F631D629F6947F400679F619F6927F413
:101F800080679F6168E000BF036800261A6AC4F298
:101F9000010622F480721A621D6A1A46D3F804C040
:101FA00052F81CEFB3428E680C6825F4007545EAC0
:101FB00006250FD1CE68D1E90598360240F2FF47D9
:101FC000BE432CF4405725F4406547EA09173543D2
:101FD00047EA081C2EF073072743C3F804C0DF61EB
:101FE0004F680969DF631D62DF6947F00807DF6139
:101FF000DF6927F00407DF612FE000BF03680027D7
:102000001A6AC4F2010722F480521A621A46D3F8FF
:1020100020C05D6852F81C4FD1F800E08E68BB42CA
:1020200004D14F6925F4804545EA87152CF4005703
:1020300047EA063724F4E64646EA0E265D60DE618E
:102040004E6809691E641F62DF6947F40067DF613B
:10205000DF6927F48067DF610902136819431160A3
:102060000021002280F83C200846BDE8F0830000F3
:10207000002804BF0120704710B5044690F83D00C9
:1020800028B9002084F83C00204600F08FF8022098
:1020900084F83D00206840F2FF730268C4F2000338
:1020A00040F2000C9842C4F2010C1DDD40F6000124
:1020B000C4F20001884220D060451ED040F60041A5
:1020C000C4F20001884218D04FF6FF71C4F200013B
:1020D00088421CDC984225DCB0F1804F3AD040F2B7
:1020E0000041C4F2000133E0B0F1804F05D040F26E
:1020F0000041C4F200018842E6D1A16822F07002DA
:102100000A434FF6FF71C4F200018842E2DD44F257
:10211000FF31C4F20101884210DC60451AD044F25C
:10212000000113E040F60001C4F20001884211D022
:1021300040F60041C4F200010AE000BF44F600018D
:10214000C4F20101884205D044F20041C4F2010109
:10215000884203D1216922F440720A43A36922F024
:102160008001D4F804E0E268194360450160C2626E
:10217000C0F828E002D16169CCF83010012141613A
:10218000002084F8461084F83E1084F83F1084F84C
:10219000401084F8411084F8421084F8431084F809
:1021A000441084F8451084F83D1010BD70470000BD
:1021B00041B1082910D0042914BF00F1410200F1F7
:1021C0003F020BE090F83E20012A1CBF012070471F
:1021D000022280F83E2013E000F140021278012A2A
:1021E0001CBF012070470222082907D0042914BF10
:1021F00080F8412080F83F2002E000BF80F84020B6
:10220000006801F01F010122036A8A4023EA0201EB
:102210000162036A4421C4F201011A43A1F144039B
:102220009842026216D040F6FF31C4F200018842A3
:102230001ADCB0F1804F28D040F20041C4F2000116
:10224000884222D040F60001C4F2000188421CD02E
:1022500022E000BF0A6842F400420A6040F6FF3103
:10226000C4F200018842E4DD40F60041C4F20001FE
:1022700088420AD044F20001C4F20101884204D02D
:102280000021C4F20101884206D1816801F00701F2
:10229000062904BF00207047016841F00101016078
:1022A00000207047002804BF0120704710B5044685
:1022B00090F83D0028B9002084F83C00204600F04A
:1022C00021F8242084F83D002068C16821F40051E1
:1022D000C160204600F03AFB2068016921F490417A
:1022E0000161416921F02A014161C16841F4005155
:1022F000C16000202021206484F83D1084F83E1045
:1023000010BD000080B586B0016841F20000C4F243
:102310000100814202D006B080BD00BF002143F61B
:1023200030020191C4F20202536900F5704043F09B
:1023300010035361536903F010030193019B019152
:10234000136843F001031360126802F00102019266
:10235000019A4FF4C06201920222CDE902210321C9
:1023600004910721059101A9FEF712FF06B080BD77
:102370002DE9F04381B0044690F83D0020280DD1AE
:102380000F4600294FF0010000F0DD801646002ABC
:1023900000F0D98094F83C00012803D1022001B05C
:1023A000BDE8F083012084F83C004FF000092120B3
:1023B0001D46C4F8409084F83D00FEF7C7FFA68490
:1023C000E684A1680646B1F5805F07D12069002840
:1023D0001CBF38464F46B846074601E04FF000089C
:1023E00084F83C90E18C2068002900F08B8005F196
:1023F00001090AE047B317F8011B4160E18C01397C
:10240000E184E18C002900F07D8001680906F1D4A7
:10241000B9F1000F0AD0EDB1FEF798FF801BA8427A
:1024200018D8206801680906F6D5E3E701680906AF
:10243000E0D4016809065CBF01685FEA0161D9D494
:1024400001680906F2D5D5E738F8021B00276FF3BB
:102450005F21D2E7206850E8030F216820F4D07094
:1024600041E80302BAB3206850E8030F216820F462
:10247000D07041E8030272B3206850E8030F21686E
:1024800020F4D07041E803022AB3206850E8030F1B
:10249000216820F4D07041E80302002ADAD11AE062
:1024A000206850E8050F216820F0010041E805028E
:1024B000DAB1206850E8050F216820F0010041E8FA
:1024C000050292B1206850E8050F216820F0010054
:1024D00041E805024AB1206850E8050F216820F064
:1024E000010041E80502002ADAD1202084F83D00ED
:1024F00084F83E00002084F83C00032001B0BDE8D1
:10250000F08300BF0168490619D4FDB1691C0DD1E3
:102510000168490613D4016849065CBF01685FEA97
:1025200041610CD401684906F2D508E0FEF70EFFC0
:10253000801BA8420AD8206800684006F6D52020F3
:1025400084F83D00002001B0BDE8F083206850E829
:10255000030F216820F4D07041E80302E2B3206841
:1025600050E8030F216820F4D07041E803029AB3C9
:10257000206850E8030F216820F4D07041E803027E
:1025800052B3206850E8030F216820F4D07041E86E
:102590000302002ADAD11FE0206850E8050F216805
:1025A00020F0010041E80502002A9ED0206850E892
:1025B000050F216820F0010041E80502002A3FF4E0
:1025C00094AF206850E8050F216820F0010041E831
:1025D0000502002A3FF489AF206850E8050F216802
:1025E00020F0010041E80502002AD5D17DE7000076
:1025F000FEE70000B0B584B040F2181001230024BB
:10260000C2F2000042F20001C0F60073C4F2010100
:102610000125C0E90A34022303944FF48032057681
:1026200080F82040C36180F8305080E81600C0E98F
:1026300003454561FEF712FA002818BFFEF762F95C
:1026400040F21810C2F200006946CDE9004502943C
:10265000FEF75EF9002818BFFEF754F9012000903C
:102660000220019040F21810C2F200006946FEF705
:102670004FF9002818BFFEF745F904B0B0BD0000BF
:1026800080B582B00020019043F63000C4F2020011
:102690000168002241F4800101600068002100F41B
:1026A0008000019001983820FEF7D0FE382002B05B
:1026B000BDE88040FEF7BABE82B0002043F630018C
:1026C0000190C4F202010A6842F080020A600A68BE
:1026D00002F080020192019A0090086840F0010027
:1026E0000860086800F001000090009802B0704790
:1026F000B0B59CB0002540F2C010C4F20105002125
:10270000C2F20000142240F28F1380241691CDE90A
:1027100014111191CDE90F11CDE90D11CDE90B1176
:10272000CDE90911CDE90711CDE90511CDE9031175
:10273000CDE90111C0E90052C0E90213C0E904115A
:102740008461FFF70DFA002818BFFEF7DBF84FF49D
:102750008050139040F2C010C2F2000013A9FFF79E
:10276000B9FA002818BFFEF7CDF840F2C010C2F247
:102770000000FFF77DFC002818BFFEF7C3F840F209
:10278000C0100024C2F2000010A9CDE91044FFF7E8
:102790009FF9002818BFFEF7B5F86020099078204F
:1027A000CDE90A0440F2C010C2F2000009A90022DB
:1027B000CDE90C44CDE90E44FFF75AFB002818BFC1
:1027C000FEF7A0F840F2C01400204FF40051C2F20E
:1027D00000040590CDE90300CDE9010006910890C1
:1027E00001A92046FFF74EF9002818BFFEF78AF826
:1027F0002068A84202D01CB0B0BD00BF002043F644
:1028000030011790C4F202010A6842F001020A6026
:10281000096801F00101179117994FF48071179120
:102820000221CDE918101A9001201B9005F5803087
:1028300017A9FEF7ADFC1CB0B0BD000080B540F29A
:10284000082041F20001C2F20000C4F2010100239D
:102850004FF00C0C4FF4E13280E80E00C0E9033376
:10286000C0E905C3C361FFF71DFD002808BF80BD97
:10287000BDE88040FEF746B8FEE70000FEE7000036
:102880007047000070470000FEF766BDB0B592B01B
:10289000002443F64000CDE90A44CDE908440594FC
:1028A000CDE90344CDE901440094C4F2020001687B
:1028B000022541F080510160006800F080500090D6
:1028C000009847F200000094C4F20000016865F32C
:1028D0008F310160006800F44040009000980120B2
:1028E00006904FF4803007904FF480000D9019202F
:1028F0000E90A820CDE90F050420119006A80C9594
:10290000FEF7EEFE20B1EFF3108072B6FEE700BFD7
:102910000F20CDE901054FF48050CDE9040401A852
:1029200002210394FEF7CEFD20B1EFF3108072B6C2
:10293000FEE700BF12B0B0BD4EF68850CEF20000E8
:10294000016841F4700101607047000010B5044651
:102950000068D4E902C22369016921F4405111439E
:102960000161626943EA0C01E3691143C2681943DA
:1029700049F20C639A431143C1604169A26921F491
:10298000407141F20043114340F48062C4F20103FC
:102990009A42416102D1FEF759FE01E0FEF742FE84
:1029A000E16963681922B1F5004FA0FB02011FD154
:1029B0005A00DB0FFDF70AFC48F21F51C5F2EB117C
:1029C000A0FB01235A096FF0630302FB03003223CB
:1029D00003EBC000A0FB01014FF4F87000EA1110F6
:1029E00000EB0210C1F3421108442168886010BD59
:1029F0009A009B0FFDF7EAFB48F21F51C5F2EB115D
:102A0000A0FB01235A096FF0630302FB030032238A
:102A100003EB0010A0FB0101F02000EA511000EBD5
:102A20000210C1F3431108442168886010BD000002
:102A3000FEE7000080B582B0019040F20820C2F2AB
:102A4000000001A901224FF6FF73FFF791FC0198E6
:102A500002B080BDFEF78EFCFFF718FFFFF72CFEDB
:102A6000FFF70EFEFFF7C6FDFFF742FEFFF7E6FE9B
:102A700040F2180449F6991149F69A1241F20026DB
:102A8000C2F200040020C3F6A971C9F69912C4F27B
:102A9000A806C4E90C0046F24D234AF6FC17C4E927
:102AA0000406C4E90621C4E90A0040F2181040F205
:102AB0005001C3F65073CDF2F127C2F20000C2F20A
:102AC00000016422C4E90873FEF7CEF840F2C0109A
:102AD000C2F200000021FFF76BFB9FED678A9FEDBC
:102AE000679A40F2100940F2340B0FF2941869A56E
:102AF000C2F200094FF0DC0AC4F2010B40E000BF53
:102B00006068FDF7ADFC94ED040B02460B4694EDB6
:102B100006CB94ED08DB94ED0AAB51EC100BFDF7FE
:102B200027FC02460B4641EC1B0B51EC1C0BFDF73E
:102B300025FC94ED0C0B06460F4651EC1D0B53EC97
:102B4000102BFDF71BFC32463B46FDF770FB06469B
:102B500020880F4684ED0ABB84ED0CABFDF780FCAA
:102B600002460B4630463946FDF761FBFDF785FC12
:102B7000B0F5967F28BF4FF496702080CBF8000008
:102B800094ED010AB8EE400A20EE080A20EE090A88
:102B900010EE100AFDF790FC024640460B4600F08E
:102BA00083F894ED020AB8EE400A20EE080A20EEFF
:102BB000090A10EE100AFDF77FFC024628460B4674
:102BC00000F072F899F80000022819D0012897D077
:102BD0000028D5D16068FDF743FC94ED040B024654
:102BE0000B4694ED06CB94ED08DB94ED0AAB51EC6B
:102BF000100BFDF7BDFB02460B4641EC1B0B14E02E
:102C0000A068FDF72DFC94ED040B02460B4694EDF5
:102C100006CB94ED08DB51EC100BFDF7A9FB41EC62
:102C20001B0B94ED0AAB02460B4651EC1C0BFDF757
:102C3000A5FB94ED0C0B06460F4651EC1D0B53EC17
:102C4000102BFDF79BFB32463B46FDF7F0FA06469C
:102C500020880F4684ED0ABB84ED0CABFDF700FC29
:102C600002460B4630463946FDF7E1FAFDF705FC12
:102C7000DC2828BF504680E73333534000008039BA
:102C80004144315F76616C75653D25312E33665662
:102C90000D0A00004144325F76616C75653D253157
:102CA0002E3366560D0A00000FB4054B10B503A96C
:102CB000044A029800F0DAF810BC5DF814FB00003A
:102CC000352A00080000002002E008C8121F08C1D1
:102CD000002AFAD170477047002001E001C1121F9D
:102CE000002AFBD1704700002DE9FF5F82B0002170
:102CF000DDE90430020DDDF840B0034318D044F69E
:102D00001050A2F2FF3242431514119801281FD02F
:102D1000A5EB0B00401C5FEA000A4FF000064E4F87
:102D2000DFF83891B046504615D5CAF1000413E0DB
:102D3000119801244AA3012801D16FEA0B010298DE
:102D4000119AC0E90031C0E9024206B0BDE8F09F27
:102D5000CBF10000DFE704460021404A491842EB6E
:102D60000450CDE9001012E0E00707D032463B46A0
:102D700040464946FDF702FB8046894632463B46BF
:102D800010461946FDF7FAFA06460F466410002C65
:102D9000EAD1DDE90401DDE90023BAF1000F06DA2A
:102DA000FDF7ECFA42464B46FDF7E8FA05E0FDF781
:102DB0003AFC42464B46FDF736FC04460E460022DE
:102DC000284BFDF7B7FC03D84FF0FF30014607E072
:102DD0000022254B20463146FDF729FAFDF792FCEB
:102DE000102409E0002C0ADB0A220023FDF7EEF98B
:102DF000039B30321A55641E50EA0102F2D1641C62
:102E0000039AC4F111031444119A012A03D0012238
:102E100008430DD10AE0084304D000204FF0110B05
:102E2000119072E7A3EB0B056D1E0DE05B4504DD11
:102E30004FF0000205F1010504E003DA4FF0000253
:102E4000A5F10105002AECD002981199C0E90231E0
:102E5000C0E9004579E70000000014400000F03FA1
:102E6000300000000000F0430000E03F2DE9FF4F7C
:102E700095B09B468946064600250FE2252877D166
:102E800000242746F84A0121059400E0044316F87F
:102E9000013F203B01FA03F01042F7D130782A2895
:102EA00011D06FF02F033078A0F13002092A16D824
:102EB000059A44F0020402EB820203EB4202104442
:102EC000761C0590EFE759F8042B0592002A03DAE7
:102ED000504244F40054059044F00204761C3078CB
:102EE0002E2816D116F8010F44F004042A280DD01C
:102EF0006FF02F023078A0F13003092B09D807EBCF
:102F0000870302EB4303C718761CF3E759F8047BE9
:102F1000761C30786C280FD006DC4C2817D0682837
:102F20000DD06A2814D104E0742810D07A280FD16B
:102F30000DE044F400140AE044F4801401E044F489
:102F400040147278824202D104F58014761C761CFB
:102F5000307866280BD013DC582877D009DC00289D
:102F600075D04528F6D04628F4D047281AD19DE1DF
:102F700018E0632835D0642879D0652812D195E10E
:102F8000702873D008DC6728F1D069286FD06E28CC
:102F90000DD06F2806D1B5E073282CD0752875D0D8
:102FA000782874D05A46179990476D1C75E1C4F380
:102FB0000250022809D003280DD0D9F800100428A7
:102FC0000DD00D6009F1040967E1D9F80010EA1786
:102FD000C1E90052F6E7D9F800100D80F2E70D7054
:102FE000F0E719F8041B8DF8001000208DF801009F
:102FF000EA46012003E059F804AB4FF0FF306107C7
:103000004FF0000102D40DE008F101018846B942F9
:103010000FDA8045F8DB1AF808100029F4D108E02F
:1030200008F1010188468142FADB1AF808100029EC
:10303000F6D105985B46A0EB080721463846179A5B
:1030400000F094FA284400EB080507E04DE029E180
:103050000DE01AF8010B5A4617999047B8F101088C
:10306000F7D25B4621463846179A13E142E00A221E
:103070000092C4F302524FF0000A022A08D059F815
:1030800004CB032A4FEAEC710AD00DE029E02AE0D4
:1030900009F1070121F00702F2E802C1914609E0B7
:1030A0000FFA8CFC4FEAEC71042A03D14FFA8CFC26
:1030B0004FEAEC71002907DA0A460021DCF1000C26
:1030C00061EB02012D2202E0220504D52B228DF8AE
:1030D0000420012203E0E20701D02022F7E7904616
:1030E00059E00A2102E010220DE010214FF0000A01
:1030F00000910BE010224FF0000A44F0040408276E
:10310000009203E008224FF0000A0092C4F302523A
:10311000022A05D059F804CB0021032A08D009E07F
:1031200009F1070121F00702F2E802C1914605E02A
:103130001FFA8CFC042A01D10CF0FF0C4FF00008A0
:10314000220728D5702806D0009B83F0100353EA8D
:103150000A0305D00EE040228DF80420012208E089
:103160005CEA010206D030228DF804208DF80500BB
:1031700002229046009B83F0080353EA0A030AD117
:103180005CEA010201D1620705D530228DF80420E6
:103190004FF001087F1E582804D034A003900EA8D9
:1031A00002900DE036A0F9E753466046009AFDF71D
:1031B0000DF884460398825C0298401E02900270CB
:1031C0005CEA0100F0D1029806A9081A00F1200A71
:1031D000600702D524F4803400E00127574502DD62
:1031E000A7EB0A0000E0002000EB0A010090059820
:1031F0004144401A0590E00306D45B462146179AE5
:10320000059800F0B3F90544002706E001A85A46E6
:10321000C05D179990476D1C7F1C4745F6DBE003A6
:103220000CD55B462146179A059800F09FF9054496
:1032300004E030205A46179990476D1C0099481EAB
:1032400000900029F5DC08E0029802995A460078BF
:10325000491C0291179990476D1CBAF10001AAF11F
:10326000010AF1DC65E10000092801003031323348
:1032700034353637383961626364656600000000B2
:10328000303132333435363738394142434445469C
:103290000000000000F058F90544761C3078002842
:1032A0007FF4ECAD19B02846BDE8F08F620700D47A
:1032B000062709F1070222F0070CFCE80223E14689
:1032C00003F000485FEA080C02D00FF2702C0DE00A
:1032D0005FEA045C02D50FF2682C07E05FEAC47C69
:1032E00002D00FF2602C01E0AFF2700C4FF0FF380B
:1032F00023F00043CDF850C065280CD006DC4528EB
:1033000009D046281DD047283DD13DE0662818D079
:1033100067287ED138E00021112F01DB112000E069
:10332000781CCDE9000106A90EA8FFF7DDFCDDE958
:103330000F010E9A03910021009207F1010A0491F6
:103340004DE04FF000400097CDE9011006A90EA80E
:10335000FFF7CAFCDDE90F0203920E9B11990022D0
:10336000DDF80CA00093049211B9791C00EB010A5E
:10337000B7EB0A0004D4C0F1FF3007F1010A049052
:10338000AAEB0700019044E0012F00DA0127002199
:10339000112F01DD112000E03846CDE9000106A91A
:1033A0000EA8FFF7A1FCDDE90F010E9A03910021A1
:1033B00004910092BA4621070CD40399514500DAD2
:1033C0008A46BAF1010F05DD009AAAF10101515CAC
:1033D000302908D0B84202DA10F1040F06DA0121D0
:1033E000CDE9011015E0AAF10101E9E7002805DCAB
:1033F000049901440491AAEB000102E0411C5145EB
:1034000000DD8A460499401A401C01904FF00040AC
:103410000290200704D40198504501DBCDF80480C8
:1034200000208DF84F0002980DF14F07B0F1004FCA
:1034300025D02B200E9002984FF0020800280CDABD
:10344000404202902D200E9007E00A210298FDF7DD
:1034500046F83031029007F8011DB8F10001A8F1DB
:103460000108F2DC02980028EFD1791E0E9808704E
:10347000307800F0200040F0450007F8020D12A857
:10348000C01B00F107081498007800B1012000EB80
:103490000A01019801EBE07105984144401A401E71
:1034A0000590E00306D45B462146179A059800F084
:1034B0005DF805441498007818B15A46179990475A
:1034C0006D1CE00324D55B462146179A059800F051
:1034D0004DF805441CE00498002807DBDDE90301F2
:1034E000884203DD0098405C179901E0179930206D
:1034F0005A469047049805F10105401C0490019834
:10350000401E019004D12E205A46179990476D1CF9
:10351000BAF10001AAF1010ADDDC05E017F8010BA0
:103520005A46179990476D1CB8F10001A8F101089F
:10353000F4DC5B462146179A0598ABE62D000000A7
:103540002B000000200000002DE9F041044600257A
:103550001E461746880404D405E039462020B047AB
:103560006D1C641EF9D52846BDE8F0812DE9F041B7
:10357000044600251E469046C80301D5302700E0CA
:103580002027880404D505E041463846B0476D1C25
:10359000641EF9D52846BDE8F08100000000000057
:1035A00000000102030406070809000000000102F0
:1035B000030400061016000610160000E03500088F
:1035C0000000002018000000C82C0008F835000892
:1035D0001800002040060000D82C00080000000061
:1035E0000000000001000000100000000024F400B2
:0835F0000200000000000000D1
:040000050800019559
:00000001FF
